:020000040800F2
:1000000040150020D9000008011100085510000813
:1000100000000000000000000000000000000000E0
:1000200000000000000000000000000005110008B2
:100030000000000000000000031100080711000884
:10004000EB000008EB000008EB000008EB000008E4
:10005000EB000008EB000008EB000008EB000008D4
:10006000EB000008EB000008EB000008EB000008C4
:10007000EB000008EB000008EB000008EB000008B4
:10008000EB000008EB000008EB0000080000000097
:10009000EB000008EB000008EB000008EB00000894
:1000A000EB000008EB000008EB000008EB00000884
:1000B000EB000008EB000008EB000008EB00000874
:1000C0000448854600F090F800480047691600088B
:1000D000C046C046401500200448804704480047F9
:1000E000FEE7FEE7FEE7FEE7FEE7FEE7A1110008F8
:1000F000C100000830B50B46014600202022012433
:1001000009E00D46D5409D4205D31D469540491B4B
:100110002546954040191546521E002DF1DC30BD94
:10012000F0B51FB40646002082B005464024019178
:1001300000901BE0019922460F46304600F042F83D
:10014000049A059B801A994110D3104619462246FD
:1001500000F028F8361A8F4101972246012000212D
:10016000009F00F01FF838184D4100902046641E93
:100170000028DFDC019B00982946324607B0F0BD1D
:10018000D2B201E00270401C491EFBD2704700222F
:10019000F6E710B513460A4604461946FFF7F0FF86
:1001A000204610BD10B5202A04DB0146203A9140BC
:1001B000002010BD914020239C1A0346E3401943C0
:1001C000904010BD10B5202A04DB0846203AD040EC
:1001D000002110BD0B46D340D0402024A21A9140EC
:1001E0000843194610BD0000064C0125064E05E0E7
:1001F000E36807CC2B430C3C98471034B442F7D348
:10020000FFF762FFFC1600081C170008F8B5002372
:1002100003240125C2E032462E469E40B4463240B9
:1002200079D00E79B607B60F012E01D0022E17D164
:1002300086682746B6465E00B74000967646BE43BF
:10024000B646CF68009EB74076463743876046681B
:100250006746BE430F79FF06FF0F9F403743476055
:100260000E79F643B6070ED0C6682746B4465E0040
:10027000B646B7406646BE43B4468F687646B7403A
:1002800066463743C7600E79B607B60F022E14D103
:10029000DE08B60036180096366A5F07B446FE0ED2
:1002A0000F27B646B7406646BE43B4460F6976464A
:1002B000B74066463743009E376206682746B44615
:1002C0005E00B646B7406646BE430F79B446BF07E8
:1002D000BF0F7646B7406646374307604E68B603A1
:1002E000B60F5AD0304F7E6B2E437E639F082F4E41
:1002F000BF00BE190096B6680F27B4469E07360F9A
:10030000B646B7406646BE4305273F07B446B842E7
:1003100002D100271AE040E0254FB84201D1012761
:1003200014E0244FB84201D102270FE0224FB84217
:1003300001D103270AE0214FB84201D1042705E08B
:100340001F4FB84201D1052700E006277646B74087
:1003500066463743009EB7601A4E36684F6896432C
:10036000FF0300D51643174F3E607E684F689643E3
:10037000BF0300D51643134F7E60BE684F68964397
:10038000FF0200D516430F4FBE60FE684F689643CC
:10039000BF0200D516430B4AD6605B1C0A6816469E
:1003A000DA4000D037E7F8BD0010024000000140FD
:1003B0000004005000080050000C005000100050D5
:1003C000001C005000040140014880687047000094
:1003D0000400002002488168027889188160704713
:1003E0000400002010B50848002401684022114391
:1003F0000160204600F00AF8002801D0012401E045
:1004000000F026F8204610BD0020024070B50446DA
:100410000D4D7D202978C000FFF76CFE01460B488A
:100420000068FFF767FE00F073FC002809D1042C78
:1004300007D200222146401E00F016F800206C6012
:1004400070BD012070BD00000400002010000020DD
:100450000448416B012211434163816B0204114343
:10046000816370470010024010B501F0CBF810BD59
:10047000F8B5044600680027654D810601D40005E3
:100480007ED5634E403EB06BC00004D4B06B3104E7
:100490000843B06301275F480168C90511D40168AA
:1004A000821511430160FFF78FFF009005E0FFF711
:1004B0008BFF0099401A642844D856480068C0054C
:1004C000F5D531680320000562680140104088427C
:1004D00005D10323A0681B051840884208D090036B
:1004E000800F032804D13068800301D50120F8BDB6
:1004F000286903210904084029D00A40824202D019
:100500002278920606D4A2680A4082421FD0208830
:1005100000051CD528692A6988430121C9040A43BA
:100520002A612A698A432A612861C0050FD5FFF72D
:100530004BFF009008E0FFF747FF0099411A36484B
:10054000814201D90320F8BD28698005F3D561688F
:100550008803800F032805D13268000582430140DB
:100560000A4332602869032261681204114008437B
:100570002861002F06D0B06B01210907884300E0F5
:1005800000E0B0632078C00705D0E868E168800823
:1005900080000843E8602078800705D5E8680C21D2
:1005A000884321690843E8602078400706D5E86859
:1005B00003218902884361690843E86020780007C5
:1005C00006D5E868032109038843A1690843E86068
:1005D0002088C00506D5E868032109048843E1693D
:1005E0000843E8602078400606D5E86801218906BE
:1005F0008843616A0843E8602078000606D5E86809
:10060000032189048843216A0843E8600020F8BD7B
:10061000401002400070004088130000F8B50E46FC
:10062000050038D05E480068C007C00FB04214D241
:100630005B4C20684008400030432060FFF7C4FE58
:10064000074605E0FFF7C0FEC11B564881427AD835
:100650002068C007C00FB042F4D12878524C800700
:1006600005D5E068F0218843A9680843E060287850
:10067000C00752D06868022806D0032807D0216836
:1006800001280AD0890504E02168890301E0216876
:100690008901002903DB0120F8BD4907F9E7E1687A
:1006A000890889000143E160FFF78EFE074668680C
:1006B00002280AD0032814D001281ED029E0FFF711
:1006C00083FEC11B374881423DD8E0680007800F98
:1006D0000228F4D121E0FFF777FEC11B31488142A7
:1006E00031D8E0680007800F0328F4D115E0FFF748
:1006F0006BFEC11B2B48814225D8E0680007800FA4
:100700000128F4D109E0FFF75FFEC11B25488142B3
:1007100019D8E0680007800FF5D121480168C907A2
:10072000C90FB14217D90168490849003143016036
:10073000FFF74AFE074608E005E0FFF745FEC11B4C
:100740001848814201D90320F8BD15480068C00748
:10075000C00FB042F1D12878400706D5E0680721E4
:1007600009028843E9680843E0602878000707D554
:10077000E0680721C90288432969C9000843E0608D
:1007800000F03AF8E168094A0906090F515CC840CF
:100790000749086007480068FFF738FEF8BD000009
:1007A000002002408813000000100240CC16000810
:1007B0001000002008000020044805490068C968AE
:1007C000044A4905490F515CC84070471000002099
:1007D00000100240E5160008044805490068C96891
:1007E000044A8904490F515CC8407047100000203A
:1007F00000100240E516000870B51A4AD3681A497D
:100800000C2018408D0004280CD04E00082810D071
:100810000C2810D050680004410F0120C003491C6F
:10082000884070BD1068C00601D5084670BD2846D6
:1008300070BD304670BD98020C4C000F205C1B024E
:100840009C0FD368641CDB0301D5314603E01268BA
:10085000D20600D4294600F0AFFE22460023FFF75F
:100860005FFC70BD0010024000093D00DC1600086E
:10087000FEB505007ED0F74CE7680C20E66807401F
:100880000120000406402878C00747D0082F05D073
:100890000C2F0AD101200004864206D12068800373
:1008A0003CD568680028E5D038E00120696800047C
:1008B000814203D121680143216011E00523012217
:1008C0001B0492049942216802D111432160F1E78F
:1008D000814321602168014000912068904320609D
:1008E000686800280DD0FFF76FFD009005E0FFF766
:1008F0006BFD0099401A64287ED820688003F6D5E5
:100900000CE0FFF761FD009005E0FFF75DFD009949
:10091000401A6428F0D820688003F6D4287880072D
:100920005DD5E868810604D5226820210A4322604B
:1009300088430923042F0DD00C2F01D1002E09D09C
:1009400000283CD02168994301432160FFF73CFD1A
:10095000064628E02168490701D500288AD0616849
:100960001F22120291432A69120211436160216819
:10097000994300E0C7E101432160FFF73DFFE168D3
:1009800009060A0FB449895CC840B4490860B448F4
:100990000068FFF73BFD002874D120E0FFF714FD4D
:1009A000801B0228A8D820684007F7D560681F215F
:1009B0000902884329690902084360600FE0206842
:1009C000400840002060FFF7FFFC064604E0FFF708
:1009D000FBFC801B02288FD820684007F7D42878BA
:1009E000C00661D5002F0DD0E86900284BD02068E3
:1009F000FF210131084300E0EAE02060FFF7E4FC5A
:100A000006462DE02068800502D5E8690028A5D0BB
:100A10006068072149038843696A08436060606829
:100A2000298C0002000A090608436060686A410BCD
:100A30000120C003491C8840E16809060A0F864965
:100A4000895CC8408549086085480068FFF7DEFC7E
:100A5000002817D128E0FFF7B7FC801B0228A1D897
:100A600020688005F7D56068072149038843696AD3
:100A7000084360606068298C0002000A0906084388
:100A8000606011E025E12168FF2001308143216091
:100A9000FFF79AFC064604E0FFF796FC801B02284D
:100AA00099D820688005F7D428786E4E000724D5A1
:100AB00068690028306910D0012108433061FFF7D0
:100AC00083FC009005E0FFF77FFC0099401A0228A4
:100AD0007ED830698007F6D50FE0400840003061CD
:100AE000FFF772FC009005E0FFF76EFC0099401ADA
:100AF00002286DD830698007F6D42878400764D57D
:100B000000200290A06BC00006D4A06B0121090751
:100B10000843A0630120029053480168C90511D41D
:100B20000168821511430160FFF74EFC009005E05B
:100B3000FFF74AFC0099401A642849D84A480068DF
:100B4000C005F5D5FF20AA680130824203D1316982
:100B50000143316111E001218902002A07D00523F8
:100B60001B029A4203D132690A433261EFE73269CC
:100B700082433261306988433061A86800280ED012
:100B8000FFF722FC009006E0FFF71EFC0099411AD7
:100B9000364881421CD830698005F5D50DE0FFF755
:100BA00013FC009006E0FFF70FFC0099411A2F4854
:100BB00081420DD830698005F5D40298002804D010
:100BC000A16B012000078143A1632878800600E023
:100BD0007EE02ED52648A9694314002916D0A268C4
:100BE00001210A43A260626B0A436263016A1943EE
:100BF0000162FFF7E9FB064604E0FFF7E5FB801B17
:100C0000022865D8A0688007F7D512E0A1684908D6
:100C10004900A160016A99430162FFF7D5FB0646CE
:100C200004E0FFF7D1FB801B022851D8A0688007A1
:100C3000F7D4A86A002868D00C2F4FD001263606BA
:100C40000228206816D0B0432060FFF7BDFB0546A0
:100C500040E0000000100240CC1600081000002008
:100C6000080000204010024000700040881300007F
:100C700000000140B0432060FFF7A6FB074604E0F8
:100C8000FFF7A2FBC01B022822D820688001F7D4FE
:100C9000296BE86AE2680843696BFD231B049A43E9
:100CA00011430843E060206830432060FFF78CFB6D
:100CB000054604E0FFF788FB401B022808D820689F
:100CC0008001F7D521E0FFF77FFB401B022801D907
:100CD0000320FEBD20688001F5D416E00128F8D07D
:100CE000E06801210904EA6A014091420BD10F2119
:100CF00089042A6B0140914205D1032189050840EE
:100D0000696B884201D00120FEBD0020FEBD0000BD
:100D1000094910B5401E884201D9012010BD074C79
:100D200060610321081F00F06DFC0020A061072016
:100D30002061002010BD0000FFFFFF0000E000E088
:100D400010B5040003D0A06F002802D007E00120F6
:100D500010BD002174200155204600F027F8242002
:100D6000A06720680168490849000160204600F03A
:100D7000AFFA0128ECD0606A002802D0204600F0CB
:100D800010FA206841680922D2029143416020682C
:100D900081682A2291438160206801680122114301
:100DA0000160204600F062FA10BD0000F0B587B087
:100DB000044614216846FFF7EAF9234F2668052008
:100DC000002322490124022503220007BE420BD141
:100DD0004E6BA7033E434E63CE6A2643CE62C96A7A
:100DE0002140059151020FE0194FBE4217D18E6B81
:100DF00001277F043E438E63CE6A2643CE62C96AD2
:100E0000C907C90F05910C21009101950293039226
:100E1000042104916946FFF7F9F907B0F0BD0D4FC1
:100E2000BE42FAD18E6B0127FF043E438E63CE6A29
:100E30002643CE62C96A0092C907C90F0591019580
:100E4000029303920621E4E70038014000100240BB
:100E500000440040004C0040FFB50446C06F85B020
:100E600017460E4620287AD1002E0AD0002F08D02F
:100E7000A168C001814207D12069002804D1F00790
:100E800002D0012009B0F0BD204660300090007D06
:100E9000012864D0009801210175002080210851AB
:100EA0002221E1672066FFF78FFA25464035029040
:100EB0002F836F830121A0680903FF22884204D198
:100EC0002369002B0CD1274A0AE07F23002809D090
:100ED00001221207904219D12269002A05D03F222F
:100EE000AA8303E02769002FFAD0AB83AA8B019273
:100EF000884202D1206900280AD03746002600998E
:100F0000002008750198C0B203901AE00022E7E7BC
:100F10000027F4E708980090002220212046029B39
:100F200000F0E0FA002801D00320ABE72068002F92
:100F30000FD0416A0398014039707F1C688B401EB6
:100F40006883688B0028E5D12020E067002099E7BE
:100F500005E0406A019908403080B61CEEE70220A7
:100F600090E70000FF010000FFB50446806F83B0EA
:100F700017460D4620285ED1002D0AD0002F08D03C
:100F8000A168C001814207D12069002804D1E80787
:100F900002D0012007B0F0BD204660300090007DF7
:100FA000012848D0009801210175002080210851B6
:100FB0002120A067FFF708FA2646403601903782C5
:100FC00077820120A1680003814202D120690028B4
:100FD00005D02F46002500990020087511E0002754
:100FE000F9E700228021204600F07CFA002815D184
:100FF000002F15D02168387888627F1C708A401EC7
:101000007082708A019B002806980090E9D1002226
:101010004021204600F066FA002808D00320B9E7F6
:1010200028882168C005C00D8862AD1CE6E7202035
:10103000A0670020AEE70220ACE700000A4610B52A
:101040000146024B0248FFF78FFF10BDFFFF000073
:101050001C010020FEE7000010B50C480A490160A1
:101060004B21C901416000218160C1600161816142
:10107000C1610C22016242614162FFF761FE0028FA
:1010800001D072B6FEE710BD003801401400002008
:1010900010B50C480A4901604B21C901416000218B
:1010A0008160C16001618161C1610C2201624261A4
:1010B0004162FFF745FE002801D072B6FEE710BD81
:1010C000004400409800002010B50C480A49016017
:1010D0004B21C901416000218160C16001618161D2
:1010E000C1610C22016242614162FFF729FE0028C2
:1010F00001D072B6FEE710BD004C00401C0100207C
:10110000FEE77047704710B5FFF764F910BD0000A7
:1011100030B59DB038216846FFF739F8142118A87A
:10112000FFF735F828210EA8FFF731F81B480168B2
:101130000322D2029143C214891801600220009058
:1011400001210A90039140040C9000011021002419
:101150000D900B9404916846FFF78AFB002801D09C
:1011600072B6FEE70F20032518901A941B940121F4
:1011700019951C9418A8FFF751FA002801D072B6EF
:10118000FEE711940EA80E951294FFF771F900284E
:1011900001D072B6FEE71DB030BD00000070004007
:1011A000704710B5818CC90707D001684A680123D0
:1011B0005B049A43836A1A434A60818C890707D586
:1011C00001684A6801231B049A43C36A1A434A60B0
:1011D000818C490707D501684A6801239B049A431B
:1011E000036B1A434A60818C090707D501684A6876
:1011F0000123DB039A43436B1A434A60818CC9067F
:1012000007D50268916801231B039943836B194337
:101210009160818C890607D501688A6801235B0388
:101220009A43C36B1A438A60818C490612D50368BE
:101230005A6801210905046C8A4322435A60026CF2
:101240008A4207D10268516803235B059943436CC6
:1012500019435160818C090607D501684A6801234A
:10126000DB04806C9A4302434A6010BDF8B5044623
:10127000002680300660FFF7A7F805462068006862
:10128000124F000709D501212B46002249052046AF
:10129000009700F027F900280DD12068006840076A
:1012A0000BD501212B46002289052046009700F02E
:1012B00019F9002801D00320F8BD2020A067E067BD
:1012C0002666603426750020F8BD0000FFFFFF0190
:1012D000F8B50446016880682269E66910436269CE
:1012E000002532431043754B0A68754E3240024365
:1012F0000A6020684168032212039143E2681143A7
:1013000041602168A069994201D0226A10438A682D
:101310000B263602B24302438A606A4922686A4851
:101320008A420CD1C0688007800F06D001283FD0C8
:1013300002283BD0032827D124E0012725E0634978
:101340008A420AD1C0680C2108402DD004282FD031
:1013500008282BD00C2817D114E05D498A4223D0ED
:101360005C498A4220D09A420ED1C1680320800293
:10137000014019D001208002091A19D0091A15D08C
:10138000814201D1082700E010274F4952484039D7
:1013900086009A4232D1002F0CD0022F0DD0042F9C
:1013A00010D0082F7FD126E00027EEE70227ECE7D8
:1013B0000427EAE7FFF700FA06E00968C90605D442
:1013C000304603E0FFF718FA002872D06268510037
:1013D0005118814267D81103814264D3010E06027D
:1013E0005008002330185941FEF79AFE03210902E4
:1013F000411A3A4A55E00120C003E7E70122E369B8
:10140000D20393422BD13B0000F0EEF80906090C01
:101410004D114D4D4D274D00FFF7CEF909E0FFF777
:10142000DBF906E00968C90605D4304603E0FFF79A
:10143000E3F900283DD0616840004A088018FEF7B3
:1014400059FE80B202462649103A8A422BD8491CDE
:1014500001400007400F084329E01046EBE73B003E
:1014600000F0C2F80906090C2112212121232100D4
:10147000FFF7A2F90AE0FFF7AFF907E00968C9062C
:1014800006D4304604E00EE0FFF7B6F9002810D08D
:1014900061684A081018FEF72DFE80B20146104A16
:1014A0001039914203D9012503E01046F0E7216885
:1014B000C86000206066A0662846F8BD004800406D
:1014C000F369FFEF00380140401002400044004043
:1014D000004C00400050004000093D00FFFC0F00A0
:1014E000EFFF0000FFB581B00546174604466035A2
:1014F0000A9E55E0701C53D0FEF766FF0499401A0F
:10150000B04230D8002E2ED020680168490747D558
:10151000C069C043000543D401202168C0020862AD
:10152000EFF31080012181F3108821680B68FF22FE
:10153000A13293430B6080F31088EFF310800121F8
:1015400081F3108821688A68520852008A6080F30B
:1015500010882020A067E067803420600020287574
:10156000032005B0F0BDEFF31080012181F3108856
:1015700021680B68FF22A13293430B6080F310882F
:10158000EFF31080012181F3108821688A685208E6
:1015900052008A6080F310882020A067E067DDE7B2
:1015A0002068C1690298884304D00020B842A1D0C5
:1015B0000020D6E70120F9E7F8B5040C8BB22646E7
:1015C00082B25E430D0C1046370C58433604801926
:1015D0000021794116466E43370C36048019794153
:1015E00026466E438919F8BD30B47446641E2578CA
:1015F000641CAB4200D21D46635D5B00E31830BC47
:10160000184700008307FF22DB0E9A408907090E66
:101610009940002808DB830809489B001B181868BC
:1016200090430843186070470007000F083883088C
:1016300004489B001B18D86990430843D861704741
:1016400000E400E000ED00E002E008C8121F08C15D
:10165000002AFAD170477047002001E001C1121F33
:10166000002AFBD17047000008B5FEF7BBFEFFF76C
:101670004FFD1148C16A01221143C162C06A104086
:101680000090FFF7E9FCFFF703FDFFF71DFD0B4D91
:101690000B4C0B212868FFF7D1FC0A49234608466A
:1016A0000A228438FFF7D8FB23460A220549064858
:1016B000FFF75AFCEDE70000001002400000002098
:1016C000FFFF0000A00100209800002000000000A3
:1016D00000000000010203040607080903040608CD
:1016E0000C1018203000000000010203040000006C
:1016F00041542B56455253494F4E3F001C1700088A
:1017000000000020140000004816000830170008F0
:10171000140000202C15000058160008F0160008D0
:101720000100000004000000000000000000200094
:04000005080000C12E
:00000001FF
